:020000040800F2
:1000000090430320B1020008230B00081B0B0008DB
:100010001F0B00084F030008890C000800000000B7
:10002000000000000000000000000000D1010008F6
:1000300053030008000000002D020008F50B000823
:10004000CB020008CB020008CB020008410B0008DD
:10005000CB020008CB020008CB020008CB0200084C
:10006000CB020008CB020008CB020008CB0200083C
:10007000CB020008CB020008CB020008CB0200082C
:10008000CB020008CB020008CB020008CB0200081C
:10009000CB020008CB020008CB020008CB0200080C
:1000A000CB020008CB020008CB020008CB020008FC
:1000B000CB020008CB020008CB020008CB020008EC
:1000C000CB020008CB020008CB020008CB020008DC
:1000D000CB020008CB020008CB020008CB020008CC
:1000E000CB020008CB020008CB020008CB020008BC
:1000F000CB020008CB020008CB0200080000000081
:10010000CB020008CB020008CB020008CB0200089B
:10011000CB020008CB020008CB020008790C0008D3
:10012000CB020008CB020008CB020008CB0200087B
:10013000CB020008CB020008CB020008CB0200086B
:10014000CB020008CB020008CB020008CB0200085B
:10015000CB020008CB020008CB020008CB0200084B
:10016000CB020008CB020008CB020008CB0200083B
:10017000CB020008CB020008CB0200080000000000
:10018000CB020008CB020008CB020008CB0200081B
:10019000CB020008CB0200080000000000000000B5
:1001A0000000000000000000CB020008CB020008A5
:1001B000CB020008CB020008CB020008DFF80CD00D
:1001C00000F088F8004800474D0D000890430320D8
:1001D0002C4B1968086800F05AB880F30988BFF3FF
:1001E0006F8F4FF0000080F311887047000000000F
:1001F00008480068006880F308884FF0000080F32A
:10020000148862B661B6BFF34F8FBFF36F8F00DF04
:1002100000BF00BF08ED00E0DFF80C00016841F40A
:1002200070010160704700BF88ED00E0EFF30980C6
:10023000BFF36F8F134B1A681EF0100F08BF20ED2D
:10024000108A20E9F04F106009B44FF0500080F39D
:100250001188BFF34F8FBFF36F8F00F0F9FD4FF0A0
:10026000000080F3118809BC1968086800F014B810
:100270001EF0100F08BF00F014B880F30988BFF318
:100280006F8F70479C0C0020EFF30580704730C8DB
:10029000B0E8C04FFFF7A1BF30C8B0E8C04FFFF7CC
:1002A000E7BFB0EC088AB0EC08CAFFF7E6BF000071
:1002B0000648804706480047FEE7FEE7FEE7FEE700
:1002C000FEE7FEE7FEE7FEE7FEE7FEE7290C000893
:1002D000BD010008064C074D06E0E06840F0010350
:1002E00094E8070098471034AC42F6D3FFF76AFF52
:1002F000241000084410000870B58C1810F8015B39
:1003000015F0070301D110F8013B2A1106D110F8AE
:10031000012B03E010F8016B01F8016B5B1EF9D1B2
:100320002B0705D40023521E0DD401F8013BFAE738
:1003300010F8013BCB1A921C03E013F8015B01F8A3
:10034000015B521EF9D5A142D8D3002070BD00BF79
:10035000FEE77047704700001849087F012801D068
:10036000032811D100BF1649096841F40061144AFD
:1003700011601146096821F40061116000BF114647
:10038000096841F400711160022801D0032811D1DD
:1003900000BF0B49096841F48051094A11601146B8
:1003A000096821F48051116000BF1146096841F4C9
:1003B000806111600021014A117770477C0C002098
:1003C000002002401249096A01F4800191B100F055
:1003D000010129B10E49496941F004010C4A5161FA
:1003E00000F0020169B10A49496941F40041084A33
:1003F000516106E00649496948F204021143044A82
:1004000051610349496941F48031014A51617047A2
:1004100000200240164A126A02F4800232B9144ADD
:10042000526922F40062124B5A610FE001F001029E
:1004300032B10F4A526922F400620D4B5A6105E055
:100440000B4A526942F40062094B5A61084A5269E8
:1004500060F3CA02064B5A611A46526942F0020220
:100460005A611A46526942F480325A61704700005C
:100470000020024010B50849496941F00101064CCD
:100480006161026000BF00BF00BFBFF36F8F00BF9C
:1004900000BF00BF436010BD00200240F0B502461F
:1004A000802314460D460C4E766946F480260A4F8A
:1004B0007E6100BFEFF31086304672B600BF2E6833
:1004C0002660241D2D1D5E1EF3B2002BF7D100BF48
:1004D00080F3108800BFF0BD0020024070B50546D3
:1004E00000F0FCF9064608E0681C30B100F0F6F9AF
:1004F000801BA84201D3032070BD1C48006900F492
:100500008030B0F5803FEFD018480069184900EA04
:1005100001041648806900F000400443CCB115483E
:10052000406820431349486000BF04F0404030B1A8
:100530000E48806904F0404108430C49886124F06A
:10054000404018B124F040400849086100BF012034
:10055000D2E70648006900F0010020B100BF012089
:100560000249086100BF0020C6E7000000200240E9
:10057000FAC302007C0C002070B504460D462646E6
:1005800000BF4FF400401349086100BF204600F04F
:1005900069F811490860601900F064F80E490968AB
:1005A000401A401C0D490860204600F01FF80C4915
:1005B000086000200B490860094800684860064848
:1005C0000068886005480068C8600749054800F071
:1005D0007BF870BD00200240540C0020580C002015
:1005E0005C0C0020B83A0320500C0020014600208B
:1005F0001A4A126802F48072BAB9194A128892B281
:100600004FF6FF739A4202D14FF4001203E0144AEE
:100610001288120492094FF0006303EB52028A42DF
:1006200001D9012018E0022016E00D4A128892B28A
:100630004FF6FF739A4202D14FF4001203E0084ACA
:100640001288120492094FF0006303EB52028A42AF
:1006500001D9022000E001207047000000000140A5
:10066000E075FF1F01460020164A128892B24FF62D
:10067000FF739A4202D14FF4001203E0114A12882C
:10068000120492094FF0006303EB52028A4203D92D
:10069000A1F10062100B13E00A4A128892B24FF6E1
:1006A000FF739A4202D14FF4001203E0054A128808
:1006B000120492094FF0006303EB52028A1A100BE6
:1006C00070470000E075FF1F2DE9F04104460F461A
:1006D00000BF3F480078012802D10220BDE8F08128
:1006E00001203B49087000BF4CF25030FFF7F6FE86
:1006F0000646002E64D1364948603648006800F44A
:100700000070B8B13348006820F4007031490860C7
:100710000846006800F4806040B10846006820F494
:100720008060086003202A49087715E001202849E5
:10073000087711E02748006800F4806048B1254838
:10074000006820F48060234908600220204908776F
:1007500002E000201E490877206801280FD1606858
:10076000FFF730FE4CF25030FFF7B8FE064619484E
:10077000406948F204018843164948611EE04FF081
:10078000FF303860A56813E028466168FFF742FE35
:100790004CF25030FFF7A2FE06460E48406940F288
:1007A000FA7188430B4948610EB13D6005E06D1C4C
:1007B000D4E902010844A842E6D800BFFFF7CCFD07
:1007C00000BF00200249087000BF304686E70000E5
:1007D0007C0C0020002002400348406940F00040AB
:1007E0000149486100207047002002402DE9F04790
:1007F0000446884615461E464FF0000900BF2948AA
:100800000078012802D10220BDE8F08701202549A7
:10081000087000BF4CF25030FFF760FE0746002F13
:1008200038D1204948602048006800F4806048B111
:100830001D48006820F480601B49086002201949A7
:10084000087702E00020174908773CB92A4633466A
:100850004046FFF70FFE4FF001090BE0012C01D0DD
:10086000022C07D129464046FFF718FE022C01D181
:100870004FF480294CF25030FFF730FE0746B9F1B3
:10088000000F05D00848406920EA09000649486180
:10089000FFF762FD00BF00200249087000BF384624
:1008A000B2E700007C0C0020002002400020084934
:1008B000496901F0004151B10649054A9160064974
:1008C00091601146496901F0004101B10120704772
:1008D0000020024023016745AB89EFCD0148006845
:1008E00070470000700C0020034800680349096845
:1008F0000844014908607047700C0020780C002003
:100900007047000010B504464FF480100A49086093
:100910002068C068C0F3802050B12068C06800F033
:10092000800060F490602168C8602046FFF7E8FF0F
:10093000012084F8210010BD140401407047704765
:100940007047704710B5044620680069C0F3400046
:10095000D8B12068C068C0F34000B0B16FF00200A9
:1009600021680861012020772068806900F0030079
:1009700018B12046FFF7E5FF05E0204600F0BEF87D
:10098000204600F0BCF80020207720680069C0F302
:100990008000D8B12068C068C0F38000B0B16FF0AB
:1009A000040021680861022020772068806900F433
:1009B000407018B12046FFF7C4FF05E0204600F064
:1009C0009DF8204600F09BF8002020772068006901
:1009D000C0F3C000D8B12068C068C0F3C000B0B197
:1009E0006FF0080021680861042020772068C06942
:1009F00000F0030018B12046FFF7A3FF05E02046F2
:100A000000F07CF8204600F07AF80020207720687B
:100A10000069C0F30010D8B12068C068C0F30010AE
:100A2000B0B16FF0100021680861082020772068BD
:100A3000C06900F4407018B12046FFF782FF05E05E
:100A4000204600F05BF8204600F059F8002020779F
:100A50002068006900F0010058B12068C06800F00B
:100A6000010030B16FF0010021680861204600F0FC
:100A700047F820680069C0F3C01058B12068C0680A
:100A8000C0F3C01030B16FF08000216808612046CB
:100A9000FFF755FF20680069C0F3002058B12068B7
:100AA000C068C0F3C01030B16FF480702168086175
:100AB0002046FFF743FF20680069C0F3801058B15B
:100AC0002068C068C0F3801030B16FF0400021682A
:100AD0000861204600F020F820680069C0F340104B
:100AE00058B12068C068C0F3401030B16FF02000EA
:100AF000216808612046FFF723FF10BD704770474B
:100B000010B5044603492068884201D1FFF7ECFE86
:100B100010BD000000140040704700BFFEE700BF9A
:100B2000FEE7704710B50346002004E033F810409C
:100B300022F81040401CB0EB510FF7D310BD00005D
:100B400010B50248FFF7DEFE10BD0000843A032016
:100B50002DE9F047044689461546FFF7A7FECA4629
:100B6000264600BF4FF400401C49086100BF2046E4
:100B7000FFF778FD1A4908606019FFF773FD1849FF
:100B80000968401A401C174908602046FFF72EFDEF
:100B9000154908600020154908601348006848603E
:100BA0000F48006888600F480068C86010490F4807
:100BB000FFF78AFD0AE0DAE900733A463146002081
:100BC000FFF714FE10B908360AF1080A6019B0429E
:100BD000F1D8FFF701FEBDE8F087000000200240D9
:100BE000300C0020340C0020380C0020A83A0320E0
:100BF000400C002010B500BF502080F31188BFF3D7
:100C00004F8FBFF36F8F00BF00F06AF918B14FF03C
:100C100080500449086000BF002080F3118800BFA5
:100C200010BD000004ED00E01048006840F47000C2
:100C30000E4908600E48006840F001000C49086049
:100C400000208860084600680A4908400849086092
:100C50008814C8600846006820F4802008600020DE
:100C60008861C803014980390860704788ED00E059
:100C700000100240FFFFF6EA10B50248FFF762FEDF
:100C800010BD0000443A032000BFFEE770B50646E1
:100C90000C461546E01D20F0070422462946304642
:100CA000FFF756FF70BD02E008C8121F08C1002AF6
:100CB000FAD170477047002001E001C1121F002ADD
:100CC000FBD1704710B500F015F810BD10B5044603
:100CD00006480460606806490860206880F3088858
:100CE00000BF08460068804710BD000008ED00E026
:100CF000280C002000B500F001F800BD00B5114A35
:100D000002211148FFF70EFF0E48008844F2AA5155
:100D100088420ED00B4890F8BD01012808D109483F
:100D2000D0F8C001401C18B90020064981F8BD0167
:100D300000BD044A40F608410348FFF7F3FE00BF38
:100D4000F6E700000000002000600808FFF7BAFF87
:100D5000134890F8BD0101281CD14FF448311148C7
:100D6000FFF70AFC0E48104AD0F8C0110F48FFF7F1
:100D7000D9FE0B480C4AD0F8C0110A48FFF786FF8D
:100D80000020074981F8BD0100F02CF80548FFF765
:100D90009DFF02E00348FFF799FF00BFFEE7000058
:100DA0000000002000000208341A0020003005086E
:100DB0000A490968096809B9012100E0002121B147
:100DC0004FF0FF31064A116006E004490968C9681E
:100DD000C868034A4168116070470000A00C0020F9
:100DE000CC0C002010B540F60840064908600648C3
:100DF000FFF7B0FA054A40F608410348FFF746FFFF
:100E000010BD00006C0C00200060080800000020ED
:100E100001460A69D1E901309860D1E901035860BF
:100E20005068884201D188685060002008611068CD
:100E3000401E10601068704742684A6093688B607B
:100E4000936859609160086103685B1C0360704798
:100E50001E48006818B101201D49086034E00020D8
:100E60001B4908601B4801680CE051B900BF5020C5
:100E700080F31188BFF34F8FBFF36F8F00BF00BFA8
:100E8000FEE7491E01EB8100134A52F8200008B921
:100E9000012000E000200028E7D101EB81020E4B89
:100EA00003EB820042685268426000F10802436826
:100EB000934202D14268526842604268D268074B4E
:100EC0001A600448016000BF70470000D40C002085
:100ED000C00C0020B40C0020C83A03209C0C002059
:100EE0002DE9F0414FF0000843480068002876D112
:100EF00042480068451C4148056015BB40480068F1
:100F0000006808B9012000E0002050B900BF50205F
:100F100080F31188BFF34F8FBFF36F8F00BF00BF07
:100F2000FEE73748076837480068354908603548A4
:100F3000076035480068401C33490860FFF738FFF8
:100F400000BF3248006885423BD300BF2C48006890
:100F5000006808B9012000E0002020B14FF0FF3008
:100F60002A4908602CE026480068C068C4686668A2
:100F7000B54202D22548066022E0201DFFF748FF57
:100F8000A06A18B104F11800FFF742FF2049E06A97
:100F90000968884202D91E49E06A0860E16A01EBEB
:100FA00081011C4A02EB8100211DFFF745FF1A4910
:100FB000E06A0968C96A8842C8D34FF00108C5E7EA
:100FC00000BF15480068C06A00EB8000114951F865
:100FD0002000012801D94FF0010805E0FFE70F4884
:100FE0000068401C0D4908600D48006808B14FF0CA
:100FF00001084046BDE8F081D40C0020B00C002070
:10100000A00C0020A40C0020C40C0020CC0C00205C
:10101000B40C0020C83A03209C0C0020BC0C00201B
:10102000C00C00204410000800000020D80C000074
:10103000F802000858110008D80C0020B836030048
:10104000B60C00082755AA0101576412314311015B
:1010500028090A85083DBD3CF83B04210B1F803F51
:10106000041A030139051F010101070407011909C9
:10107000190141BC803B450411BB7A4404BC401CAF
:10108000460401101B409C28D1292499040B12C846
:1010900042040C15AE4781B0120113204E1310020A
:1010A0001AFF01211A2CA5321E290E2B2C01022A0F
:1010B0004A101B01112811622085C3A4B6581201E1
:1010C000121F000A20017965632D74657374501036
:1010D0003139322E3136382E3130302E323334CD54
:1010E000383731321EDE39392E3435321914823117
:1010F0006D3235352E048A308819042B011F0761A3
:10110000324029B069040A15C804297D1904320542
:10111000080B117777772E61762E636F6DB32B32C4
:1011200030046124060C020B14803E04297C0B4B16
:101130001C46041114C8421403FFFBFF01FF01FF0A
:1011400001FF01FF01FF01FF01FF01FF01E5321077
:08115000021301091214013819
:04000005080001BD31
:00000001FF
